:030000000212EFFA
:0C12EF00787FE4F6D8FD75816F0213369D
:0F177600424D503238303A0041485432303A0038
:070003000148000246000065
:101584001216AB1216F07F007EC27D017C0012168B
:1015940047900000AF82AE83E4FCFD7BFF7AFFF945
:1015A400F8D31206ED4003A380EA1215CB1214E718
:1015B400120F7012143B12174F1211D7120AEF12A6
:0715C4001609120E1F80F250
:10174F00758903438E80538FFE758C77758A48D2C7
:04175F00A9D28C225D
:03000B000213E3FA
:1013E300C0E0C0F0C083C082C0D075D000C000C0D0
:0D13F30001C002C003C004C005C006C00751
:101400000547E54770020546C394E8E54694034066
:101410000F1200C012182112004E754600754700C9
:10142000D007D006D005D004D003D002D001D00020
:0B143000D0D0D082D083D0F0D0E032CA
:050E1F001200485063C1
:100E24001217E890000412074E8F4E8E4D8D4C8C95
:100E34004B7BFF7A177976121763AF4EAE4DAD4CEC
:100E4400AC4B75100A12137B7F0D1218037F0A1224
:100E54001803E4F508C3E5089404748094805020D2
:100E640074552508F8A64EAF4EAE4DAD4CAC4B783C
:100E7400081207148F4E8E4D8D4C8C4B050880D56F
:030E8400434801DF
:080E870012181E4003020F25A2
:100E8F001217F18B098A0A890B12055FF54A85F053
:100E9F004990000212058AF55085F04F7BFF7A17B3
:100EAF00797E121763AE49AF4AEE3395E0FDFC75BC
:100EBF00100612137B7F20121803AE4FAF50E4FCC5
:100ECF00FD75100612137B7F0D1218037F0A12187F
:100EDF0003E4F508C3E508940274809480501474F9
:100EEF00532508F8A64AE549F54A3395E0F5490533
:100EFF000880E1E4F508C3E50894027480948050FB
:100F0F001274592508F8A650E54FF550754F000596
:060F1F000880E3434802D4
:050F250012182A502AF9
:100F2A0012180B8E518F52E4F508C3E50894027427
:100F3A008094805012745B2508F8A652E551F55248
:0A0F4A00755100050880E3434804D8
:100F54001218274003434808E548640F700DFB7AD4
:0C0F64000079537D0A121492E4F5482233
:10000E001217947FEC12173A7FE012173A7FB6124E
:05001E00173A0217A1D2
:100C9F001217947FEC12173A7F8812173A12179493
:100CAF007FED12173AD20A12167E752A008F2BD2B9
:100CBF000A12167EE4FCFDFE780812073BEF422B6A
:100CCF00EE422AD20A12167E752C008F2DD20A12EE
:100CDF00167EE4FCFDFE780812073BEF422DEE4234
:100CEF002CD20A12167E752E008F2FD20A12167E64
:100CFF00E4FCFDFE780812073BEF422FEE422ED2A6
:100D0F000A12167E7530008F31D20A12167EE4FC5D
:100D1F00FDFE780812073BEF4231EE4230D20A1245
:100D2F00167E7532008F33D20A12167EE4FCFDFE5A
:100D3F00780812073BEF4233EE4232D20A12167E88
:100D4F007534008F35D20A12167EE4FCFDFE78084A
:100D5F0012073BEF4235EE4234D20A12167E753639
:100D6F00008F37D20A12167EE4FCFDFE78081207B8
:100D7F003BEF4237EE4236D20A12167E7538008F9D
:100D8F0039D20A12167EE4FCFDFE780812073BEFFB
:100D9F004239EE4238D20A12167E753A008F3BD294
:100DAF000A12167EE4FCFDFE780812073BEF423B69
:100DBF00EE423AD20A12167E753C008F3DD20A12CD
:100DCF00167EE4FCFDFE780812073BEF423DEE4233
:100DDF003CD20A12167E753E008F3FD20A12167E43
:100DEF00E4FCFDFE780812073BEF423FEE423ED295
:100DFF000A12167E7540008F41C20A12167EE4FC5D
:100E0F00FDFE780812073BEF4241EE42400217A168
:1015CB0012000E900000AF82AE83E4FCFD7BFF7A2D
:1015DB00FFF9F8D31206ED4003A380EA1217947FAC
:1015EB00EC12173A7FF412173A7F5512173A7FF520
:0E15FB0012173A7F1012173A1217A1020C9F16
:101725001217947FEC12173A7FF412173A7F56126C
:05173500173A0217A1A4
:0611D7002000030212EEED
:1011DD001217947FEC12173A7FF712173A121794E1
:1011ED007FED12173AD20A12167EE48F0FF50EF527
:1011FD000DF50CAE0EAD0DAC0C780812073B8F0F34
:10120D008E0E8D0D8C0CD20A12167EE50F4FF50F3A
:10121D00E50EF50EE50DF50DE50CF50CAF0FAE0E6B
:10122D00AD0DFC780412073B8F0F8E0E8D0D8C0CBF
:10123D00D20A12167EEFC4540FFFE50F4FF50FE5DE
:10124D000EF50EE50DF50DE50CF50CD20A12167E18
:10125D00E48F0BF50AF509F508AE0AAD09AC08786F
:10126D000812073B8F0B8E0A8D098C08D20A1216B5
:10127D007EE50B4FF50BE50AF50AE509F509E508DD
:10128D00F508AF0BAE0AAD09FC780412073B8F0BC6
:10129D008E0A8D098C08C20A12167EEFC4540FFFF8
:1012AD00E50B4FF50BE50AF50AE509F509E508F536
:1012BD00081217A1121725AF0BAE0AAD09AC081213
:1012CD0010A88F258E248D238C22AF0FAE0EAD0D61
:1012DD00AC0C1207DF8F298E288D278C26C200D2E9
:0112ED0001FF
:0112EE0022DD
:0810A8008F138E128D118C10C4
:1010B000AE2AAF2BE4FCFD780112073BC004C0054B
:1010C000C006C007AF13AE12AD11AC107803120703
:1010D00027D003D002D001D000C3EF9BFBEE9AFAD9
:1010E000ED99F9EC98F8AE2CAF2DEE3395E0FDFCC0
:1010F0001205C2780B1207278F178E168D158C14C8
:10110000AE2AAF2BE4FCFDC004C005C006C007AF8B
:1011100013AE12AD11AC107804120727D003D00221
:10112000D001D000C3EF9BFFEE9AFEED99FDEC9845
:10113000FCC004C005C006C007AE2AAF2BE4FCFD0E
:10114000C004C005C006C007AF13AE12AD11AC108D
:101150007804120727D003D002D001D000C3EF9B40
:10116000FFEE9AFEED99FDEC98FCD003D002D00181
:10117000D0001205C2780C120727A804A905AA06F8
:10118000AB07AE2EAF2FEE3395E0FDFC1205C27813
:101190000E1207278F1B8E1A8D198C18E517251B29
:1011A000F545E516351AF544E5153519F543E51409
:1011B0003518F542E47F05FEFDFCAB45AA44A94382
:1011C000A8421205C2EF2480FFE43EFEE43DFDE4A8
:0711D0003CFC780802072730
:0807DF008F138E128D118C1096
:1007E700AF45AE44AD43AC427801120727E42FF57D
:1007F70017EE3406F516ED34FFF515EC34FFF51456
:10080700AF17AE16AD15FC7802120727C004C00556
:10081700C006C007AF17AE16AD15AC1478021207A5
:1008270027D003D002D001D0001205C2780B1207DF
:1008370027A804A905AA06AB07AE3AAF3BEE339546
:10084700E0FDFC1205C28F1B8E1A8D198C18AE386D
:10085700AF39EE3395E0FDFCAB17AA16A915A8141E
:100867001205C2780112073BE51B2FF51BE51A3E5F
:10087700F51AE5193DF519E5183CF518AE36AF3709
:10088700EE3395E0FDFC781012073BC004C005C0AD
:1008970006C007AF1BAE1AAD19AC187802120727AE
:1008A700D003D002D001D000EF2BF51BEE3AF51A9A
:1008B700ED39F519EC38F518AF17AE16AD15AC14C0
:1008C7007802120727C004C005C006C007AF17AEDD
:1008D70016AD15AC147802120727D003D002D00149
:1008E700D0001205C2780D120727A804A905AA0689
:1008F700AB07AE34AF35EE3395E0FDFC1205C27899
:1009070003120727C004C005C006C007AE32AF33C5
:10091700EE3395E0FDFCAB17AA16A915A81412052E
:10092700C27801120727D003D002D001D000EB2FE5
:10093700FFEA3EFEE93DFDE83CFC78121207278FEF
:10094700178E168D158C14E42517FBE5163480FADF
:10095700E43515F9E43514F8AE30AF31E4FCFD1297
:1009670005C2780F1207278F178E168D158C14EC7A
:100977004D4E4F7005FFFEFDFC22C3E49513FFE4C7
:100987009512FE74109511FDE49510FCC004C00586
:10099700C006C007AF1BAE1AAD19AC18780C12070A
:1009A70027AB07AA06A905A804D007D006D005D00B
:1009B70004C3EF9BFFEE9AFEED99FDEC98FCE47BF8
:1009C700357A0CF9F81205C28F1F8E1E8D1D8C1CEF
:1009D700E4FFFEFD7C80AB1FAA1EA91DA81CC31245
:1009E7000703AB17AA16A915A8145016C000AF1F06
:1009F700AE1EAD1DAC1C780112073BD00012064D90
:100A07008014AF1FAE1EAD1DAC1C12064DE47B0259
:100A1700FAF9F81205C28F1F8E1E8D1D8C1CAF1F91
:100A2700AE1EAD1DAC1C7803120714C004C005C070
:100A370006C007AF1FAE1EAD1DAC1C78031207140E
:100A4700D003D002D001D0001205C2780D120714CE
:100A5700AB07AA06A905A804AE40AF41EE3395E05F
:100A6700FDFC1205C2780C1207278F178E168D15FD
:100A77008C14AF1FAE1EAD1DAC1C7802120714AB51
:100A870007AA06A905A804AE3EAF3FEE3395E0FDE1
:100A9700FC1205C2780D1207278F1B8E1A8D198C31
:100AA70018E517251BFBE516351AFAE5153519F96B
:100AB700E5143518F8AE3CEE3395E0FDFCEB253D2B
:100AC700FFEA3EFEE93DFDE83CFC7804120727EF0C
:100AD700251FFFEE351EFEED351DFDEC351C8F1F66
:070AE7008E1E8D1DF51CFCA5
:010AEE0022E5
:03004800A20122F0
:0300C000D2002249
:0917E800C2017B007A0079222283
:02182D000000B9
:020056008F0811
:1000580078097C007D007BFF7A18792D7E007F026D
:100068001204F31217947F7012173AAF0812173A56
:10007800E4FF12173AE4FF12173A1217A112179465
:100088007F7112173AD20A12167ED20A12167E8F82
:1000980009D20A12167E8F0A1217A11217947F70BE
:1000A80012173AE50844B0FF12173AAF0912173A87
:0800B800AF0A12173A0217A16A
:0F1785007F1B1200567F1C1200567F1E0200565B
:1014E7001217947F7012173A7FA812173AE4FF1267
:1014F700173AE4FF12173A1217A11217947F7012C6
:10150700173A7FBE12173A7F0812173AE4FF1217ED
:101517003A1217A11217947F7112173AC20A1216BC
:101527007EEF5418641860061217A1021785121768
:02153700A122EF
:10002E001217947F7012173A7FAC12173A7F331261
:0A003E00173AE4FF12173A0217A167
:081539008B188A19891A8D1B19
:10154100751CFFE4FFEFC3951B5035AB18AA19A911
:101551001A8F82758300120532621CE4FEEEC39479
:1015610008748094805016E51C30E70825E064314A
:10157100F51C8006E51C25E0F51C0E80E00F80C5FA
:02158100AF1C9D
:011583002245
:060AEF00200203020C9E30
:100AF500E4F50BF50AF509F508F50FF50EF50DF515
:100B05000C1217947F7112173AD20A12167E8F10A3
:100B1500E51030E00F756B01E4F569F56AF567F5E9
:100B2500680217A1E4F517C3E5179405748094804E
:100B35005010D20A12167E74112517F8A60705174C
:100B450080E5C20A12167E8F161217A112002E7B9F
:100B5500007A0079107D06121539EF6516600D755E
:100B65006B02E4F569F56AF567F56822E4F56BE56E
:100B75000F4511F50FE50EF50EE50DF50DE50CF537
:100B85000CAF0FAE0EAD0DFC780812073B8F0F8E24
:100B95000E8D0D8C0CE50F4512F50FE50EF50EE5E6
:100BA5000DF50DE50CF50CAF0FAE0EAD0DFC78088F
:100BB50012073B8F0F8E0E8D0D8C0CE50F4513F52F
:100BC5000FE50EF50EE50DF50DE50CF50CAF0FAEC9
:100BD5000EAD0DFC78041207148F0F8E0E8D0D8C43
:100BE5000CE513540FFFE50B4FF50BE50AF50AE588
:100BF50009F509E508F508AF0BAE0AAD09FC78085B
:100C050012073B8F0B8E0A8D098C08E50B4514F5F1
:100C15000BE50AF50AE509F509E508F508AF0BAE98
:100C25000AAD09FC780812073B8F0B8E0A8D098CDB
:100C350008E50B4515F50BE50AF50AE509F509E59E
:100C450008F508E47FE87E03FDFCAB0FAA0EA90DAD
:100C5500A80C1205C2E4FBFA7910F812064D8E694C
:100C65008F6AAF0BAE0AAD09AC08E41203647B00D2
:100C75007A40799C78461201BEE4FBFA798078497E
:100C85001202C77B007A40799C78C51200CD120309
:090C9500A28E678F68C202D2032F
:010C9E002233
:03181E00A2032200
:03182100D20222CE
:0917F100C2037B007A0079672233
:0300C3000216CF53
:1016CF00C0E0C083C08290FE82E030E60DE054BFE0
:1016DF00F090FE81E054F0F0C206D082D083D0E0CB
:0116EF0032C8
:1016AB0043BA805392CF5391CF90FE80E044C1F068
:1016BB0090FE887401F090FE81E04480F0D2AF7F01
:0416CB003F0217C8FB
:0B17C80090FE80E054C0F0E04FF022E3
:0D179400D20690FE81E04401F02006FD2207
:0D17A100D20690FE81E04406F02006FD22F5
:10173A00D20690FE86EFF02006FD90FE82E030E0B1
:05174A0002C322D322BE
:10167E00D20690FE81E04404F02006FD90FE82E04A
:10168E00300A0554FEF080034401F0D20690FE812C
:0D169E00E04405F02006FD90FE87E0FF22ED
:03004B0002181286
:0618120075CDC0C20732D3
:1016F00043BA8053B2C353B14343B28043A20CC236
:0F17000007D2B775CE5375CDC043AF02D2AF221B
:0A17DE00D2078FCF2007FDAFCF2206
:0300530002002682
:05002600C290C2083287
:0617AE00D2B7C2B77F07AD
:0717B400EF4420FF0217DEE5
:0617FA00D2B7C2B77FE187
:031800000217DEEE
:031824000217DECA
:10170F00C2B7E4FF1217B4300A047F0A80027F08C1
:06171F00121824D2B722CB
:100F700043BA8053B2BF53B1BF4392015391FEE4D1
:100F8000F508C3E50894FF74809480500405088038
:100F9000F1438F10D2AFC290C208C2B77FFF1218C0
:100FA00000D2B7C2B7E4FF1217B47F08121824D2D8
:100FB000B7C2B77F011217B47F03121824D2B7C289
:100FC000B77F021217B47F03121824D2B7C2B77FBB
:100FD000031217B47F03121824D2B7C2B77F0412CA
:100FE00017B47F35121824D2B7C2B77F051217B4D1
:100FF0007F4B121824D2B7C2B77F061217B47F27CF
:101000001218241217AE7F70121824D2B7C2B77FFD
:101010000A1217B4E4F508C3E508940574809480B7
:1010200050097F8C121824050880ECD2B7C2B77F14
:101030000B1217B4E4F508C3E50894057480948096
:1010400050097F8D121824050880ECD2B7C2B77FF3
:10105000101217B4E4F508C3E50894057480948071
:1010600050097F8C121824050880ECD2B7C2B77FD4
:10107000121217B47F0A121824D2B7C2B77F1C12FB
:1010800017B4E4FF121824D2B7C2B77F1D1217B4E9
:10109000E4FF1218241217FAD2B7C2B77FE212186F
:0810A00000D2B7D20A02170FBB
:101492008B0C8A0D890E8D0FD208C2B77FFF1218EE
:1014A20000EF30E4031217FA1217AE7F70121824FD
:1014B200D2B7C2B77FA0121800D3E50F9400748090
:1014C2009480401CAB0CAA0DA90E120519FF12182C
:1014D200247401250EF50EE4350DF50D150F80D996
:0514E200D2B7D29022F8
:03182700A20822F2
:03002B00021818A0
:0618180053BCDFD20432D4
:10143B00C205C20443BA805392FD43910275BC0F9F
:10144B0075DE2F90FEA8743FF0D20A1217D39000CE
:10145B0000AF82AE83E4FCFD7B407A9CF9F8D3129B
:10146B0006ED4003A380EA12004E0000E5BC30E518
:10147B00FBAFBDEF426DE56D756D00F56CAFBEEF6B
:06148B00426DD2ADD2AFAC
:011491002238
:04004E0043BC40224D
:0B17D300300A0443BC802253BC7F227C
:0316090030043A70
:10160C00AFBDEF4209E509750900F508AFBEEF4221
:10161C0009AE08AF097C047DA612077EC006C00780
:10162C00AE6CAF6DAB07AA06E4F9F8D007D0061282
:0A163C00064D8E6E8F6FC204D205BA
:011646002281
:07180B00C205AE6EAF6F22B3
:03182A00A20522F2
:030023000217BB06
:0D17BB00309904C299C209309802C29832D8
:10164700AB07AA06A905A8047FB07E837D857C0029
:1016570012064DC3E49FFFE49E43BA8053B2FC5386
:10166700B1FC438E048FD7F5D6759850438E01D2BF
:06167700AC438E10D2AF5F
:01167D00224A
:08180300D2098F992009FD2292
:10176300120519FF600C121803740129F9E43AFAFF
:0317730080EE22E3
:08137B008F0F8E0E8D0D8C0CFE
:10138300E4F511E511C395105037E47B0AFAF9F837
:10139300AF0FAE0EAD0DAC0C12064DAF03745D2551
:1013A30011F8A607AF0FAE0EAD0DAC0CE47B0AFA35
:1013B300F9F812064D8F0F8E0E8D0D8C0C051180D2
:1013C300C2851011D3E51194007480948040107489
:0F13D3005C2511F8E62430FF121803151180E590
:0113E20022E8
:1000C60002040EE86480F8E933E83360110460F056
:1000D600ED33EC337009E8FCE9FDEAFEEBFF2204A0
:1000E60060DED3EB9FEA9EE99DE8C2E78CF0C2F79B
:1000F60095F0400CE8CCF8E9CDF9EACEFAEBCFFB67
:100106001203D985D0F05804700320D5B3E80470E3
:10011600075002B2D502041892D5EC0460F7E4CC7D
:10012600C0E0C398F8603B94186008400DD0E0FB2F
:100136000203F0E4FBFAC9FC8028E830E406E4C9CF
:10014600FBE4CAFCE830E305E4C9CACBFCE8540783
:100156006010F8C3E913F9EA13FAEB13FBEC13FC8E
:10016600D8F130F52FC3E49CFCEF9BFFEE9AFEED31
:1001760099FDD0E0FBEF4E4D4C701222DB030204DA
:1001860015EC2CFCEF33FFEE33FEED33FDED30E7DF
:10019600EB0203F0EF2BFFEE3AFEED39FDD0E0FB6C
:1001A60050130BBB0003020418ED13FDEE13FEEF14
:0801B60013FFEC13FC0203F03F
:1001BE00EC4D6011E8497017ED33EC3304600DE43B
:1001CE00FCFFFEFD22E933E8330470F802040E1240
:1001DE0003D958046009E4CC248150062850090242
:1001EE000418284003020415C0E0EB4A7044B9809D
:1001FE0006D0E0FB020404EF4E701CBD8008EBFF3E
:10020E00EAFEE9FD80EBE98DF0A4FEE5F00202A71F
:10021E00E9CDF9EAFEEBFFEF89F0A4FCE5F0CE891B
:10022E00F0A42EFFE435F0CD89F0A42DFEE435F0D8
:10023E008067EF4E7005BD80D780C3EF8BF0A4AC06
:10024E00F0EE8BF0A42CFCE435F0F8EF8AF0A42C41
:10025E00E5F038FCE433CB8DF0A42CFCE5F03BF854
:10026E00EE8AF0A42CFCE5F038F8E433CF89F0A444
:10027E002CFCE5F038CF3400CE89F0A42FFFE5F04A
:10028E003EFEE433C98DF0A42EFEE5F039CD8AF0A2
:10029E00A42FFFE5F03EFEE43DFD33D0E0FB50071A
:1002AE000BBB000F020418EC2CFCEF33FFEE33FEF9
:0602BE00ED33FD0203F028
:1002C400020418EC5D046005E85904700302040E8E
:1002D4001203D9580460F6EC4860F2EC7004FDFE99
:1002E400FF22C860DB2481C85009C398600250060D
:1002F4000204159850CAF582E9294B4A7005AB826D
:1003040002040475F0007C1A7880C3EF9BEE9AED2A
:1003140099400DC3EF9BFFEE9AFEED99FDE842F084
:10032400DC23ACF0D0E0FFD0E0FED0E0FDAB8220D7
:10033400E7101BEB60BAEC2CFCEF33FFEE33FEED61
:1003440033FD0203F0E803F830E705C0F075F00070
:10035400EF2FFFEE33FEED33FD40B830E7C280AA45
:1003640075F020800E75F010800575F0087D007E14
:10037400007F003392D530D5031206DFEC334010F2
:10038400EF33FFEE33FEED33FDEC33FCD5F0ED221D
:0E039400E5F0247EA2D513CC92E7CDCEFF2259
:1003A200EDD2E7CD33EC3392D524814006E4FFFE53
:1003B200FDFC22FCE4CFCECDCC24E0501174FF80B2
:1003C200EDC3CC13CCCD13CDCE13CECF13CF04704F
:0703D200F030D5DE0206DF6A
:1003D900E9D2E7C933E833F892D5EDD2E7CD33EC6A
:0703E90033FC5002B2D522E3
:1003F000EC30E7100FBF000C0EBE00080DBD00046E
:100400000BEB6014A2D5EB13FCED92E7FD2274FF19
:10041000FCFDFEFF22E480F8A2D574FF13FC7D8072
:03042000E480EF86
:1012FB00021584E493A3F8E493A34003F68001F270
:10130B0008DFF48029E493A3F85407240CC8C333F3
:10131B00C4540F4420C8834004F456800146F6DFC2
:10132B00E4800B0102040810204080900003E47E4F
:10133B00019360BCA3FF543F30E509541FFEE493B7
:10134B00A360010ECF54C025E060A840B8E493A37E
:10135B00FAE493A3F8E493A3C8C582C8CAC583CAA9
:10136B00F0A3C8C582C8CAC583CADFE9DEE780BE61
:01000A0000F5
:10042300E709F608DFFA8046E709F208DFFA803EBB
:1004330088828C83E709F0A3DFFA8032E309F608A8
:10044300DFFA8078E309F208DFFA807088828C8310
:10045300E309F0A3DFFA806489828A83E0A3F608C4
:10046300DFFA805889828A83E0A3F208DFFA804C9E
:1004730080D280FA80C680D4806980F28033801075
:1004830080A680EA809A80A880DA80E280CA8033DE
:1004930089828A83ECFAE493A3C8C582C8CCC58356
:1004A300CCF0A3C8C582C8CCC583CCDFE9DEE78026
:1004B3000D89828A83E493A3F608DFF9ECFAA9F0A5
:1004C300EDFB2289828A83ECFAE0A3C8C582C8CCFB
:1004D300C583CCF0A3C8C582C8CCC583CCDFEADE14
:1004E300E880DB89828A83E493A3F208DFF980CC76
:1004F30088F0EF60010E4E60C388F0ED2402B4046F
:100503000050B9F582EB2402B4040050AF23234515
:06051300822390047373C3
:10051900BB010689828A83E0225002E722BBFE02E0
:09052900E32289828A83E4932213
:10053200BB010CE58229F582E5833AF583E022507E
:1005420006E92582F8E622BBFE06E92582F8E222C8
:0D055200E58229F582E5833AF583E49322E2
:10055F00BB010A89828A83E0F5F0A3E02250068767
:10056F00F009E71922BBFE07E3F5F009E319228929
:0B057F00828A83E493F5F0740193225C
:10058A00BB0110E58229F582E5833AF583E0F5F0AF
:10059A00A3E0225009E92582F886F008E622BBFE8C
:1005AA000AE92582F8E2F5F008E222E5832AF583D2
:0805BA00E993F5F0A3E9932297
:1005C200E88FF0A4CC8BF0A42CFCE98EF0A42CFCD8
:1005D2008AF0EDA42CFCEA8EF0A4CDA8F08BF0A456
:1005E2002DCC3825F0FDE98FF0A42CCD35F0FCEBB5
:1005F2008EF0A4FEA9F0EB8FF0A4CFC5F02ECD397A
:0F060200FEE43CFCEAA42DCE35F0FDE43CFC22E6
:1006110075F008758200EF2FFFEE33FECD33CDCCA0
:1006210033CCC58233C5829BED9AEC99E582984023
:100631000CF582EE9BFEED9AFDEC99FC0FD5F0D600
:10064100E4CEFBE4CDFAE4CCF9A88222B800C1B92A
:100651000059BA002DEC8BF084CFCECDFCE5F0CB68
:10066100F97818EF2FFFEE33FEED33FDEC33FCEBA1
:1006710033FB10D703994004EB99FB0FD8E5E4F95C
:10068100FA227818EF2FFFEE33FEED33FDEC33FC49
:10069100C933C910D7059BE99A4007EC9BFCE99A3D
:1006A100F90FD8E0E4C9FAE4CCFB2275F010EF2F82
:1006B100FFEE33FEED33FDCC33CCC833C810D70782
:1006C1009BEC9AE899400AED9BFDEC9AFCE899F8BD
:0E06D1000FD5F0DAE4CDFBE4CCFAE4C8F92250
:0E06DF00C3E49FFFE49EFEE49DFDE49CFC222C
:1006ED00EB9FF5F0EA9E42F0E99D42F0EC6480C884
:0606FD0064809845F02224
:10070300EB9FF5F0EA9E42F0E99D42F0E89C45F04C
:0107130022C3
:10071400E8600FECC313FCED13FDEE13FEEF13FFC3
:03072400D8F122E7
:10072700E86010ECA2E713FCED13FDEE13FEEF13E8
:04073700FFD8F022D5
:10073B00E8600FEFC333FFEE33FEED33FDEC33FC1C
:03074B00D8F122C0
:10074E00BB010DE58229F582E5833AF5830207B7F1
:10075E005007E92582F80207ABBBFE07E92582F8B0
:10076E000207C3E58229F582E5833AF5830207CFB6
:10077E00EC8EF0A4CCC5F0CCCDF8EFA4CEC5F02D08
:10078E00FDE43CFCE8A42EC8C5F03DFDE43CFCEFC6
:0D079E00A4FFE5F028FEE43DFDE43CFC2254
:0C07AB00E6FC08E6FD08E6FE08E6FF227A
:0C07B700E0FCA3E0FDA3E0FEA3E0FF22B5
:0C07C300E2FC08E2FD08E2FE08E2FF2272
:1007CF00E493FC740193FD740293FE740393FF2270
:00000001FF
