:0300000002062BCA
:0C062B00787FE4F6D8FD7581520206725B
:100003001B320000000000000000000000000000A0
:0D00130000000000000000000000000000E0
:1006B7007F007EC27D017C001207D1120026E4F57F
:1006C7002EF52DF52CF52BE47FFF7EFFFDFCAB2EE1
:1006D700AA2DA92CA82BC31204BF5017E52E24015D
:1006E700F52EE4352DF52DE4352CF52CE4352BF5D9
:1006F7002B80D41204E312084F8B2F8A30893112D2
:10070700086850FB1207871200567B007A0079327F
:0807170012081E12086B80E7B6
:10005600751C02D3E51C9400748094804020E52230
:10006600752200F521AB2F7E00E531251CF9EE3512
:1000760030FA90FFFF1203394222151C80D5751CF9
:1000860004D3E51C940074809480403EAF26AE25D0
:10009600AD24AC2378081204D08F268E258D248CAF
:1000A60023AB2F7E00E531251CF9EE3530FA9000A2
:1000B60001120339FFE5264FF526E525F525E5244A
:1000C600F524E523F523151C80B7751C02D3E51C22
:1000D6009400748094804020E528752800F527ABAD
:1000E6002F7E00E531251CF9EE3530FA9000051219
:1000F60003394228151C80D5751C02D3E51C9400D3
:10010600748094804020E52A752A00F529AB2F7E5D
:1001160000E531251CF9EE3530FA90000712033957
:10012600422A151C80D5AE21AF227C007D0A12031F
:10013600BBED2430F536AE21AF227C007D0A1203DA
:10014600BB8E218F227C007D0A1203BBED2430F585
:1001560035AE21AF227C007D0A1203BB8E218F2291
:1001660075342E7C007D0A1203BBED2430F533AEC8
:1001760021AF227C007D0A1203BB8E218F227C00D8
:100186007D0A1203BBED2430F53275372CE47B0A69
:10019600FAF9F8AF26AE25AD24AC2312042DEB24D4
:1001A60030F53DAF26AE25AD24AC23E47B0AFAF943
:1001B600F812042D8F268E258D248C23E47B0AFAD3
:1001C600F9F812042DEB2430F53CAF26AE25AD240C
:1001D600AC23E47B0AFAF9F812042D8F268E258DBE
:1001E600248C23E47B0AFAF9F812042DEB2430F56B
:1001F6003BAF26AE25AD24AC23E47B0AFAF9F81210
:10020600042D8F268E258D248C23753A2EE47B0AA9
:10021600FAF9F812042DEB2430F539AF26AE25ADE8
:1002260024AC23E47B0AFAF9F812042D8F268E25D6
:100236008D248C23E47B0AFAF9F812042DEB243082
:10024600F538753E2CAE27AF287C007D0A12036672
:10025600ED2430F543AE27AF287C007D0A120366F5
:100266008E278F2875422E7C007D0A120366ED24A8
:1002760030F541AE27AF287C007D0A1203668E2733
:100286008F287C007D0A120366ED2430F540AE27E8
:10029600AF287C007D0A1203668E278F287C007D9E
:1002A6000A120366ED2430F53F75442CAE29AF2AB9
:1002B6007C007D0A120366ED2430F549AE29AF2A8B
:1002C6007C007D0A1203668E298F2A7C007D0A1225
:1002D6000366ED2430F548AE29AF2A7C007D0A126C
:1002E60003668E298F2A75472E7C007D0A120366C7
:1002F600ED2430F546AE29AF2A7C007D0A1203664E
:100306008E298F2A7C007D0A120366ED2430F5457E
:09031600754A0D754B0AE4F54C23
:01031F0022BB
:0300530002085C44
:03085C00D2003295
:07084800EF4420FF02083E0F
:03085F0002083E4E
:0308620002083E4B
:0308650002083E48
:05004E00E4FF02083E82
:10080800C297E4FF1208483003047F0B80027F0977
:06081800120865D29722D0
:1004E300C29643BA8053B2BF53B1BF4392405391B4
:1004F300BFE4F51CC3E51C94FF748094805004058D
:100503001C80F1438F10D2AFC296C2977FFF1208AF
:1005130062D297C297E4FF1208487F09120865D296
:1005230097C2977F011208487F03120865D297C2CA
:10053300977F021208487F03120865D297C2977FFC
:10054300031208487F03120865D297C2977F0412EB
:1005530008487F35120865D297C2977F051208486D
:100563007F4B120865D297C2977F061208487F27F0
:10057300120865D297C2977F071208487F70120846
:1005830065D297C2977F0A120848E4F51CC3E51C9D
:1005930094057480948050097F8D120865051C8032
:1005A300ECD297C2977F0B120848E4F51CC3E51CF5
:1005B30094057480948050097F8C120865051C8013
:1005C300ECD297C2977F10120848E4F51CC3E51CD0
:1005D30094057480948050097F8D120865051C80F2
:1005E300ECD297C2977F121208487F0A120865D28D
:1005F30097C2977F1C120848E4FF120865D297C27E
:10060300977F1D120848E4FF120865D297C2977FAF
:10061300E1120862D297C2977FE2120862D297D2A0
:0806230096C200D20302080890
:10078700C296E4F51CC3E51C9478748094805004E9
:10079700051C80F1C2977F071208487F7012086511
:1007A700D297C2977F61120862E4F51CC3E51C94D7
:1007B7000A74809480500E12004E7408251CF8A607
:0907C70007051C80E7D297D296C9
:0107D0002206
:07084F007B007A007908220A
:03086800A20022C9
:03086B00C20022A6
:03004B0002085652
:0608560075CDC0C20132A5
:1000260043BA805392C3539143439280C201D297FD
:0C00360075CE5075CDC043AF02D2AF2292
:0A083E00D2018FCF2001FDAFCF22C1
:030023000208319F
:0D083100309904C299C202309802C2983278
:1007D100AB07AA06A905A8047FB07E837D857C00AE
:1007E10012042DC3E49FFFE49E43BA8053B2FC532D
:1007F100B1FC438E048FD7F5D6759850438E01D244
:06080100AC438E10D2AFE3
:0108070022CE
:08004200D2028F992002FD2279
:10081E00120320FF600C120042740129F9E43AFA27
:03082E0080EE2237
:08071F008F508E4F8D4E8C4D62
:10072700E4F552E552C395515037E47B0AFAF9F8DC
:10073700AF50AE4FAD4EAC4D12042DAF0374122522
:1007470052F8A607AF50AE4FAD4EAC4DE47B0AFA58
:10075700F9F812042D8F508E4F8D4E8C4D05528017
:10076700C2855152D3E5529400748094804010742E
:0F077700112552F8E62430FF120042155280E59A
:010786002250
:100637000206B7E493A3F8E493A34003F68001F21C
:1006470008DFF48029E493A3F85407240CC8C333C4
:10065700C4540F4420C8834004F456800146F6DF93
:10066700E4800B0102040810204080900003E47E20
:10067700019360BCA3FF543F30E509541FFEE49388
:10068700A360010ECF54C025E060A840B8E493A34F
:10069700FAE493A3F8E493A3C8C582C8CAC583CA7A
:1006A700F0A3C8C582C8CAC583CADFE9DEE780BE32
:0100200000DF
:10032000BB010689828A83E0225002E722BBFE02DB
:09033000E32289828A83E493220E
:10033900BB010CE58229F582E5833AF583E0225079
:1003490006E92582F8E622BBFE06E92582F8E222C3
:0D035900E58229F582E5833AF583E49322DD
:10036600BC000BBE0029EF8DF084FFADF022E4CC7B
:10037600F875F008EF2FFFEE33FEEC33FCEE9DEC44
:10038600984005FCEE9DFE0FD5F0E9E4CEFD22ED8A
:10039600F8F5F0EE8420D21CFEADF075F008EF2FD4
:1003A600FFED33FD4007985006D5F0F222C398FDC5
:0503B6000FD5F0EA2262
:1003BB00C2D5EC30E709B2D5E4C39DFDE49CFCEE5D
:1003CB0030E715B2D5E4C39FFFE49EFE120366C36C
:1003DB00E49DFDE49CFC800312036630D507C3E467
:0603EB009FFFE49EFE22CC
:1003F10075F008758200EF2FFFEE33FECD33CDCCC3
:1004010033CCC58233C5829BED9AEC99E582984045
:100411000CF582EE9BFEED9AFDEC99FC0FD5F0D622
:10042100E4CEFBE4CDFAE4CCF9A88222B800C1B94C
:100431000059BA002DEC8BF084CFCECDFCE5F0CB8A
:10044100F97818EF2FFFEE33FEED33FDEC33FCEBC3
:1004510033FB10D703994004EB99FB0FD8E5E4F97E
:10046100FA227818EF2FFFEE33FEED33FDEC33FC6B
:10047100C933C910D7059BE99A4007EC9BFCE99A5F
:10048100F90FD8E0E4C9FAE4CCFB2275F010EF2FA4
:10049100FFEE33FEED33FDCC33CCC833C810D707A4
:1004A1009BEC9AE899400AED9BFDEC9AFCE899F8DF
:0E04B1000FD5F0DAE4CDFBE4CCFAE4C8F92272
:1004BF00EB9FF5F0EA9E42F0E99D42F0E89C45F093
:0104CF00220A
:1004D000E8600FEFC333FFEE33FEED33FDEC33FC8A
:0304E000D8F1222E
:00000001FF
